:100000000C944E000C946B000C946B000C946B00E1
:100010000C946B000C946B000C946B000C946B00B4
:100020000C949E020C946B000C946B000C946B006F
:100030000C946B000C946B000C946B000C946B0094
:100040000C946B000C946B000C946B000C946B0084
:100050000C945B010C9455040C94D8040C941E056C
:100060000C94F3020C946B000C94CD000C94A10042
:100070000C946B000C94E5020C946B000C946B00D8
:100080000C946B000C946B000C9401030C946B00AB
:100090006364696E6F70737578585B0011241FBEBE
:1000A000CFEFCDBFDFE7DEBF13E6A0E0B0E6ECE9BF
:1000B000F0E302C005900D92AA39B107D9F726E600
:1000C000AAE9B3E601C01D92A83BB207E1F70E947E
:1000D000490A0C944C180C940000E0E0F6E082E031
:1000E000818312821382148216861386148680E41A
:1000F000808715828FEF9FE0848B958B128A138AFD
:1001000081E0808380E00895E0E0F6E08081816016
:1001100080830895E0E0F6E080818E7F80830895FB
:100120008093080681E080930A0680910D0680FF87
:10013000FCCF809110069091110621E020930D06CE
:1001400008951F920F920FB60F9211242F933F9391
:100150004F935F936F937F938F939F93AF93BF93CF
:10016000EF93FF9382E080930D06E0919C63F09102
:100170009D63309709F00995FF91EF91BF91AF9181
:100180009F918F917F916F915F914F913F912F91AF
:100190000F900FBE0F901F9018951F920F920FB6E1
:1001A0000F9211242F933F934F935F936F937F93FD
:1001B0008F939F93AF93BF93EF93FF9381E08093CF
:1001C0000D06E0919A63F0919B63309709F00995D1
:1001D000FF91EF91BF91AF919F918F917F916F911F
:1001E0005F914F913F912F910F900FBE0F901F90F5
:1001F0001895E0E0F0E182818F7882830895FC0118
:10020000808108951F93CF93DF93EC01162F43E174
:100210006DE980E090E10E941F02188340E06DE9E3
:1002200080E090E1DF91CF911F910C941F02E0E4F8
:10023000F9E010821382138212821092A46310924A
:10024000A5631092A36308959091400990FD11C099
:10025000E82FF0E0EE0FFF1FEE5EFF4981818093F3
:10026000410980818093400981E88093A36381E004
:10027000089580E008959C019091A363913809F05E
:10028000089520939E6330939F636150710960933A
:10029000A0637093A1639093A26382E48093A363AD
:1002A00080E880934209E0919E63F0919F63808192
:1002B0008093440908951F920F920FB60F92112454
:1002C0002F933F934F935F936F937F938F939F935E
:1002D000AF93BF93EF93FF9320914409809143091B
:1002E0008068809343098091A0639091A163892BDA
:1002F000C1F18091A263813829F0E0919E63F09171
:100300009F63208380919E6390919F630196809369
:100310009E6390939F638091A26320E0882329F0DD
:10032000E0919E63F0919F6320818091A063909102
:10033000A16301978093A0639093A16320934409E4
:10034000FF91EF91BF91AF919F918F917F916F91AD
:100350005F914F913F912F910F900FBE0F901F9083
:1003600018958091A263813821F08091A363823433
:1003700069F081E88093A36310924209E091A4633D
:10038000F091A5633097E1F20995DACFE0919E6391
:10039000F0919F632083EDCF40E068ED80E690E030
:1003A0000E941F0240E068ED81E690E00E941F027B
:1003B00040E068ED88E790E00E941F0244E268EDAB
:1003C00088E690E00E941F0240E068ED89E690E038
:1003D0000E941F0240E068ED80E790E00E941F024B
:1003E00040E068ED8CE790E00E941F0240E068ED7D
:1003F00082E690E00E941F0240E068ED83E690E014
:100400000E941F0240E068ED84E690E00E941F0217
:1004100040E068ED80E890E00E941F028091650056
:1004200081FFFCCF089540E068ED80E191E00E94FB
:100430001F02E0E1F1E01282138280E00895FC01E6
:1004400064BF408308950895089508950895089518
:10045000CF93DF9380E094E021E0FC012483C0E4AB
:10046000D4E01C82A0E6B4E014961C92149740EAF3
:1004700054E0FA01148221E5FC01208318821C92C9
:10048000FA011082FC01108A118A128A138A148AD6
:10049000158A168A178A188A198A1A8A1B8A1C8A48
:1004A0001D8A1E8A1F8A50961C92509751961C9244
:1004B000519752961C92529753961C92539754966A
:1004C0001C92549755961C92559756961C92569787
:1004D00057961C92FA01108A118A128A138A148A7A
:1004E000158A168A178AE0EEF5E0118210821582CD
:1004F0001782108611861682128283E292E0809320
:10050000AE639093AF6385E292E08093AC63909387
:10051000AD6386E292E08093AA639093AB6387E237
:1005200092E08093A8639093A96384E292E0809321
:10053000A6639093A763DF91CF9108951F920F92C6
:100540000FB60F9211242F933F934F935F936F93A6
:100550007F938F939F93AF93BF93EF93FF93199BD9
:1005600005C0E091AE63F091AF630995189B05C09B
:10057000E091AC63F091AD6309951D9B05C0E091DE
:10058000AA63F091AB6309951C9B05C0E091A86339
:10059000F091A96309951E9B05C0E091A663F091B7
:1005A000A76309958FEF83B9FF91EF91BF91AF9149
:1005B0009F918F917F916F915F914F913F912F917B
:1005C0000F900FBE0F901F9018951F920F920FB6AD
:1005D0000F9211248F938FEF8BB98F910F900FBED5
:1005E0000F901F9018951F920F920FB60F92112423
:1005F0008F938FEF8FB98F910F900FBE0F901F9039
:1006000018951F920F920FB60F9211248F938FEFB0
:1006100087BB8F910F900FBE0F901F9018950E946F
:10062000CC010E9428020E946D000E94F9000E94E5
:1006300017010E942E030E9433050C9413029C01A3
:1006400021503109892B49F08FE697E10197F1F7A5
:1006500000C0000021503109B8F708958EE993E0F9
:100660008093C0649093C16480E094E08093C264FE
:100670009093C364E0E0F8E080E197E2808791879F
:1006800080ED858380EC868383E0878313861486E0
:100690001686158685E294E08093C8649093C964B9
:1006A0008EE294E08093C4649093C5648DE294E0FC
:1006B0008093CA649093CB641092B4631092B56334
:1006C0001092B9641092B86480E48093C66410926A
:1006D0007764109276641092C76485818068858300
:1006E00084E090E68093B4669093B5660895909107
:1006F000C76481E0911101C080E00895E0917664C3
:10070000F0E0EA5CFB498081909176649F5F9F7383
:1007100090937664909105089F7790930508909147
:10072000C764992329F09091C76491509093C7644E
:10073000909105089068909305080895E09177647A
:10074000F0E0EE0FFF1FEA54FC4910821182809105
:10075000010882FF11C0E0917764F0E0EE0FFF1F07
:10076000EA54FC49808182608083E091C864F09102
:10077000C964309709F009958091010881FF0CC088
:100780008091B46381608093B463E091CA64F09116
:10079000CB64309709F009958091010886FF11C05C
:1007A000E0917764F0E0EE0FFF1FEA54FC4980818E
:1007B00084608083E091C464F091C564309709F04F
:1007C000099520910008809177648F5F8F739091D5
:1007D0007664981769F0E0917764F0E0EA5CFB4991
:1007E0002083809377648091C7648F5F8093C76410
:1007F000E091B063F091B163309709F009940895E6
:100800008091C6648034D0F4E091B864F0E0E85898
:10081000FB498081809302088091B8648F5F8F7359
:100820008093B8648091C6648F5F8093C664E091C2
:10083000B263F091B363309739F009948091050861
:100840008F7D80930508F3CF08950895009721F0D8
:100850008093B0639093B163089508950895909143
:10086000C6649923E1F39091C6649923B1F0E091B5
:10087000B964F0E0E858FB4980838091B9648F5FE8
:100880008F738093B964809105088F7D80930508EC
:100890008091C66481508093C6648091050880620F
:1008A0008093050890E080E008951F920F920FB6A4
:1008B0000F9211242F933F934F935F936F937F93E6
:1008C0008F939F93AF93BF93EF93FF93E0917764E0
:1008D000F0E0EE0FFF1FEA54FC4910821182809174
:1008E000010882FF11C0E0917764F0E0EE0FFF1F76
:1008F000EA54FC49808182608083E091C864F09171
:10090000C964309709F009958091010881FF0CC0F6
:100910008091B46381608093B463E091CA64F09184
:10092000CB64309709F009958091010886FF11C0CA
:10093000E0917764F0E0EE0FFF1FEA54FC498081FC
:1009400084608083E091C464F091C564309709F0BD
:10095000099520910008809177648F5F8F73909143
:100960007664891769F0E0917764F0E0EA5CFB490E
:100970002083809377648091C7648F5F8093C7647E
:10098000E091B063F091B163309709F00995FF9160
:10099000EF91BF91AF919F918F917F916F915F91F7
:1009A0004F913F912F910F900FBE0F901F90189570
:1009B0001F920F920FB60F9211242F933F934F93D4
:1009C0005F936F937F938F939F93AF93BF93EF93B7
:1009D000FF938091C664803458F5E091B864F0E0EC
:1009E000E858FB498081809302088091B8648F5F4A
:1009F0008F738093B8648091C6648F5F8093C66460
:100A0000E091B263F091B363309709F00995FF91DB
:100A1000EF91BF91AF919F918F917F916F915F9176
:100A20004F913F912F910F900FBE0F901F901895EF
:100A3000809105088F7D80930508E2CF1F920F9269
:100A40000FB60F9211248F93EF93FF93E0E0F8E03D
:100A5000848180648483FF91EF918F910F900FBE0A
:100A60000F901F901895E0EBF0E014821082128234
:100A700080E0089581E08093BA6408951F93CF9336
:100A8000DF930E9484008AE090E00E941F0318E038
:100A9000D0E0C0E0CC0FDD1FCC0FDD1F89E40E9449
:100AA000900083709927C82BD92B8AE090E00E9490
:100AB0001F03115079F7DF93CF9386E190E69F9360
:100AC0008F930E94DE11CE010E94CC110F900F90E7
:100AD0000F900F90DF91CF911F910C948A0080911D
:100AE000BB640895CF9389E290E60E94FB1180E0F9
:100AF00094E10E94FF00833229F063E280E094E1F8
:100B00000E940201C091BE6481E094E10E94FF0056
:100B1000C81729F06C2F81E094E10E940201C09176
:100B2000BD6482E094E10E94FF00C81729F06C2F99
:100B300082E094E10E940201C091BC6483E094E1F0
:100B40000E94FF00C81729F06C2F83E094E10E94F7
:100B50000201C091BB6484E094E10E94FF00C817C9
:100B600029F06C2F84E094E10E94020144E250E0FD
:100B700061E070E08EE896E6CF910C94D711CF93A8
:100B8000811106C080E094E10E94FF008332B1F140
:100B900084E490E60E94FB1180E19EE08093BD64B6
:100BA0009093BE648FEF8093BC6488E28093BB64B3
:100BB0000E9472058091BB642091BD643091BE6437
:100BC00021313E4030F020E13EE02093BD6430937F
:100BD000BE649091BC64911103C091E09093BC6499
:100BE000811103C081E08093BB6444E250E061E086
:100BF00070E08EE896E6CF910C94D7118BE690E6E4
:100C00000E94FB1181E094E10E94FF00C82F82E066
:100C100094E10E94FF009C2F8093BD649093BE647A
:100C200083E094E10E94FF008093BC6484E094E13F
:100C30000E94FF008093BB64BFCF87E890E60E94CC
:100C4000FB118CEC90E60E94FB1182EF90E60E9473
:100C5000FB1180E091E60E94FB118AE090E00E9487
:100C6000F41186E191E60E94FB118BE591E60E946A
:100C7000FB1181E891E60E94FB118DE991E60E944B
:100C8000FB118AE090E00C94F41188EB91E60E944D
:100C9000FB118091BE648F938091BD648F938DEF23
:100CA00091E69F938F930E94DE118091BC641F9206
:100CB0008F9381E192E69F938F930E94DE11809142
:100CC000BB641F928F9381E292E69F938F930E9461
:100CD000DE118DB79EB70C968DBF9EBF8AE090E067
:100CE0000C94F4110F931F93CF93DF9300D01F92B6
:100CF000CDB7DEB78091BF6410E08230F0F0823073
:100D000029F5809102668F3309F495C08A3209F47F
:100D1000E8C08D3209F41CC11092BF6482E096E6EF
:100D20009F938F9380E592E69F938F930E94DE11AD
:100D30000F900F900F900F9010E0812F2396CDBF52
:100D4000DEBFDF91CF911F910F9108951B82198211
:100D50001A82CE0101969F938F9302969F938F9351
:100D60008BE492E69F938F9382E096E69F938F9316
:100D70000E9426128B81CDBFDEBF803509F18335FD
:100D800081F0893449F689819A819C012150310989
:100D90002F3F310508F68093BB641092BF6411E0C9
:100DA0001DC089819A819C01215031092F3F310555
:100DB00008F0B2CF8093BC641092BF6411E00EC003
:100DC00089819A8181313EE0930708F0A5CF809315
:100DD000BD649093BE641092BF6410E00E947205DF
:100DE00088EB91E60E94FB118091BE648F93809105
:100DF000BD648F938DEF91E69F938F930E94DE11D8
:100E00008091BC641F928F9381E192E69F938F93B0
:100E10000E94DE118091BB641F928F9381E292E663
:100E20009F938F930E94DE118AE090E00E94F4115C
:100E3000CDBFDEBF82CF87E890E60E94FB118CEC2D
:100E400090E60E94FB1182EF90E60E94FB1180E089
:100E500091E60E94FB118AE090E00E94F41186E185
:100E600091E60E94FB118BE591E60E94FB1181E85F
:100E700091E60E94FB118DE991E60E94FB118AE048
:100E800090E00E94F41188EB91E60E94FB118091A2
:100E9000BE648F938091BD648F938DEF91E69F9395
:100EA0008F930E94DE118091BC641F928F9381E129
:100EB00092E69F938F930E94DE118091BB641F92F4
:100EC0008F9381E292E69F938F930E94DE118AE0D6
:100ED00090E00E94F4111092BF64CDBFDEBF10E01D
:100EE0002CCF84E490E60E94FB1100E11EE0009309
:100EF000BD641093BE648FEF8093BC6488E28093DE
:100F0000BB640E9472058091BD649091BE64813182
:100F10009E4020F00093BD641093BE648091BC6439
:100F2000811103C081E08093BC648091BB64811116
:100F300003C081E08093BB6444E250E061E070E074
:100F40008EE896E60E94D7111092BF6411E0F5CEAC
:100F500081E392E60E94FB1180ED97E00E941F035F
:100F600041E068ED81E490E00E941F021092BF64AE
:100F700010E0E3CE6F927F928F929F92AF92BF92DA
:100F8000CF92DF92EF92FF920F931F93CF93DF9355
:100F900000D01F92CDB7DEB7811157C08EE8A82EC2
:100FA00086E6B82E9CEC692E94E6792E22E2822EFB
:100FB00026E6922E39E1C32E35E6D32EF501819136
:100FC0005F018823E1F0CE0101967C018E010E5F66
:100FD0001F4F9E012D5F3F4FF30140816091BC6424
:100FE000F401808191810E940E118981F601808334
:100FF0008A8181838B818283F50131971082FFEF93
:101000006F1A7F0A82E0880E911C94E0C90ED11CF1
:10101000E2EBAE16E6E6BE0689F666EA70E084E12B
:1010200095E60E943B012396CDBFDEBFDF91CF91B5
:101030001F910F91FF90EF90DF90CF90BF90AF90F6
:101040009F908F907F906F9008954CECA42E44E673
:10105000B42E52E2652E56E6752E69E1C62E65E67F
:10106000D62E7EE8872E76E6972EF50141915F0118
:10107000CE0101967C018E010E5F1F4F9E012D5FF8
:101080003F4F6091BC64F301819191913F010E94B7
:101090000E118981F60180838A8181838B8182830D
:1010A000F40111924F01F4E0CF0ED11C80EFA8168D
:1010B00084E6B806D1F6B1CF6F927F928F929F925D
:1010C000AF92BF92CF92DF92EF92FF920F931F9356
:1010D000CF93DF9300D01F92CDB7DEB798E4EAEB51
:1010E000F5E6A2E2B6E601900D929A95E1F794E258
:1010F000E0EFF4E6ACECB4E601900D929A95E1F7DE
:10110000811157C08EE8A82E86E6B82E9CEC692E79
:1011100094E6792E22E2822E26E6922E39E1C32E23
:1011200035E6D32EF50181915F018823E1F0CE01F0
:1011300001967C018E010E5F1F4F9E012D5F3F4F78
:10114000F30140816091BC64F401808191810E942F
:101150000E118981F60180838A8181838B8182834C
:10116000F50131971082FFEF6F1A7F0A82E0880E37
:10117000911C94E0C90ED11CE2EBAE16E6E6BE0669
:1011800089F666EA70E084E195E60E943B012396C9
:10119000CDBFDEBFDF91CF911F910F91FF90EF90F8
:1011A000DF90CF90BF90AF909F908F907F906F9087
:1011B00008954CECA42E44E6B42E52E2652E56E679
:1011C000752E69E1C62E65E6D62E7EE8872E76E678
:1011D000972EF50141915F01CE0101967C018E01B0
:1011E0000E5F1F4F9E012D5F3F4F6091BC64F30166
:1011F000819191913F010E940E118981F6018083B6
:101200008A8181838B818283F40111924F01F4E002
:10121000CF0ED11C80EFA81684E6B806D1F6B1CF68
:101220002F923F924F925F926F927F928F929F92F6
:10123000AF92BF92CF92DF92EF92FF920F931F93E4
:10124000CF93DF93CDB7DEB72597CDBFDEBFAAE63C
:10125000EA2EA6E6FA2E6AEB75E6E2E2F6E691E001
:1012600041915191DB012D913D91BD01241735072D
:1012700008F06EC0890101501A4F041B150B421B68
:10128000530BD7014017510708F46EC09C93BFEF72
:10129000EB1AFB0A26E6EA36F20711F744244394D8
:1012A00022242A94F5E03F2EA82FB0E0AC83BD8322
:1012B0002CECA22E24E6B22E60EF74E63EE8C32E9C
:1012C00036E6D32E4AE656E696014501EAEBEE2EC7
:1012D000E5E6FE2EE2E2F6E65524539424C08F3F65
:1012E000B5E09B0708F047C0019680839183512C9D
:1012F000D4018C91DB019D91BD01891741F0D90189
:101300004C92891798F58F5FD4018C93512C3296AB
:10131000BFEF8B1A9B0A2F5F3F4F4F5F5F4F86E6F1
:10132000EA36F80779F180819181D7010D911D91FD
:101330007D0180179107E1F2D9014C92DA015C90AE
:101340005110CDCF0097D9F0019780839183D0CFF2
:101350008A0101501A4F021B130B241B350BD701B6
:101360002017310708F492CF1C9291CF8150D401FD
:101370008C93512CCCCF10821182512CB9CF20826A
:101380003182B6CF89E1882E85E6982E92E2692EC9
:1013900096E6792ED6018D916D018823F9F0FE0134
:1013A00031967F018E010E5F1F4F9E012D5F3F4FD3
:1013B000D5014C916091BC64F301808191810E94C0
:1013C0000E118981D4018C938A8111968C93119787
:1013D0008B8112968C93F60131971082BFEFAB1A76
:1013E000BB0AE2E06E0E711CF4E08F0E911C22EB42
:1013F000C21626E6D20671F666EA70E084E195E64A
:101400000E943B01511005C08C819D810E941F03E9
:101410004FCF2596CDBFDEBFDF91CF911F910F91AA
:10142000FF90EF90DF90CF90BF90AF909F908F9004
:101430007F906F905F904F903F902F90089590E035
:101440009C01220F331FF901EE5DF9490190F081F3
:10145000E02D6E177F0751F026543A49F901608359
:10146000718321E0FC01E257F9492083FC01E45338
:10147000FB492081421749F0FC01E051FB494083C0
:101480008257994921E0FC01208308958091BA6434
:101490000895CF93DF93CDB7DEB72997CDBFDEBFD9
:1014A0000E940F03789480E00E942401109214653A
:1014B000109215651092166510921765E8E1F5E631
:1014C0008FEF8083349625E6E83AF207D1F742E1C0
:1014D00050E06FEF70E088EA95E60E94D7118EE841
:1014E00096E6A0EFB4E6ECECF4E621E0AF01FA01F9
:1014F0003191AF01332319F01C92FC012083119626
:101500000196F4E6403F5F0791F788E4EAEBF5E6E1
:10151000A2E2B6E601900D928A95E1F784E2E0EF4F
:10152000F4E6ACECB4E601900D928A95E1F781E027
:101530000E94BA0788EE93E00E941F038AE090E0C1
:101540000E94F41181EC92E60E94FB1181ED92E67B
:101550009F938F930E94DE111F9281E48F938FEEF1
:1015600092E69F938F930E94DE111F9282E08F93E9
:1015700087EF92E69F938F930E94DE118AE090E0BE
:101580000E94F4118AE090E00E94F4110E943E054E
:1015900080E00E94BF050E941D060E9445068AE366
:1015A00095E00E942604CDBFDEBF05E110E084E691
:1015B00090E00E941F038091BA64811103C0015022
:1015C0001109A9F792EB492E96E6592E17C0023061
:1015D000110509F441C003301105B1F50E941A0E3E
:1015E0008091BD649091BE64892B21F08091BA6492
:1015F0008823A9F18091BA64811165C18091BD648D
:101600009091BE6404E010E0892B11F403E010E037
:101610000E94C711B8010E9453118C0111271F931A
:101620000F9380E892E69F938F930E94DE110F90B4
:101630000F900F900F900130110559F044F6012BD7
:1016400019F40E94A70ECCCF8EE992E60E94FB11FE
:10165000C7CF0E942C10C4CF0E946F10C1CF8EE85C
:1016600096E640EF54E6ECECF4E62191222331F0CB
:10167000DA011C92FF24F394DC01FC924F5F5F4F70
:10168000019624E6E03FF20781F788E4EAEBF5E60D
:10169000A2E2B6E601900D928A95E1F744E250E0AD
:1016A00061E070E08EE896E60E94D7110AE616E641
:1016B0004AEB55E6E2E2F6E612C0BC0161507A4F11
:1016C000621B730B281B390B26173707D8F4D80178
:1016D0001C920F5F1F4FB6E6EA36FB07E9F0219137
:1016E0003191DA018D919D91AD018217930728F315
:1016F000B90161507A4F681B790B821B930B8617D7
:10170000970728F7FF24F394D801FC920F5F1F4F2F
:10171000B6E6EA36FB0719F74AE656E62EE836E65D
:1017200000EF14E68CECA82E84E6B82E6AEB75E682
:10173000E2E2F6E63324339425C08F3FB5E09B0701
:10174000E8F5019680839183312CD5018C91D801E5
:101750009D918D01891751F0FF24F394D901FC92DA
:10176000891738F58F5FD5018C93312C3296BFEFF6
:10177000AB1ABB0A2F5F3F4F4F5F5F4F86E6EA36DB
:10178000F80729F180819181DB01CD90DD90BD01C9
:101790008C159D05D1F2FF24F394D901FC92DA0156
:1017A0003C903110CACF009769F0019780839183F4
:1017B000CCCF8150D5018C93312CD8CF108211829F
:1017C000312CC3CF8FEF95E080839183BECFA9E109
:1017D000CA2EA5E6DA2EB2E28B2EB6E69B2E1CECC4
:1017E000612E14E6712E0EE8A02E06E6B02ED5016D
:1017F0008D915D018823F9F0FE0131967F018E0104
:101800000E5F1F4F9E012D5F3F4FD3014C916091A2
:10181000BC64F401808191810E940E118981D601FE
:101820008C938A8111968C9311978B8112968C934D
:10183000F50131971082BFEF6B1A7B0AE2E08E0E42
:10184000911CF4E0CF0ED11C4A145B0481F666EAC9
:1018500070E084E195E60E943B01311005C084E10F
:1018600090E00E941F0358CFC090BD64D090BE642A
:10187000DF92CF9221E033E63F932F930E94DE1157
:101880008601000F111F000F111F0C0D1D1D000FF1
:10189000111F0F5F1F4F0F900F900F900F9004C0FC
:1018A0000115110509F4A6CE84E690E00E941F03FD
:1018B000015011098091BA64882391F38091BA6430
:1018C000882309F49BCE10E00E947703882369F1F6
:1018D0000E947703882309F10E947E031092BA6464
:1018E0008D30B1F38032A1F39091BF64292F30E0A5
:1018F0009F5F4FE9480F2E5F39494A3108F08FC189
:101900008052D9018C939093BF64913208F3109266
:10191000BF640E9477038111DFCF84E690E00E94CC
:101920001F030E9477038111D3CF112309F466CEE0
:10193000AEE8B6E6E0EFF4E67CEC272E74E6372E50
:101940009F01F10181911F01882321F0F90110828B
:10195000F1E0FC932F5F3F4F119680EF281684E64D
:10196000380679F788E4EAEBF5E6A2E2B6E60190FC
:101970000D928A95E1F784E2E0EFF4E6ACECB4E690
:1019800001900D928A95E1F7A2E2B6E6A887B987A1
:10199000E9E1F5E6EE83FF836F014D015CECA52ED6
:1019A00054E6B52E6EE8662E66E6762ED3018D914E
:1019B0003D018823F9F0FE0131967F018E010E5F13
:1019C0001F4F9E012D5F3F4FD5014C916091BC642C
:1019D000F401808191810E940E118981D6018C933E
:1019E0008A8111968C9311978B8112968C93F301B7
:1019F00031971082BFEFAB1ABB0AE2E08E0E911C4A
:101A0000F4E0CF0ED11C4614570481F666EA70E06C
:101A100084E195E60E943B01D090BB642AEB35E659
:101A20006CEC74E6EEE8F6E6A0EFB4E642E256E6C9
:101A300090E080E05D01DA010D911D91AD01081784
:101A4000190729F0D9018D939C93B1E0B083DB0194
:101A50001D91BD011D1521F0D501DC92B1E0B083CF
:101A60008A96AFEFAA1ABA0A31962E5F3F4F883E88
:101A7000B5E09B0701F788E4EAEBF5E6A2E2B6E6FB
:101A800001900D928A95E1F784E2E0EFF4E6ACEC88
:101A9000B4E601900D928A95E1F729E1A22E25E6A0
:101AA000B22E32E2832E36E6932EECECF4E6EC8393
:101AB000FD834EE8C42E46E6D42ED6018D916D01ED
:101AC000882301F1FE0131967F018E010E5F1F4FC9
:101AD0009E012D5F3F4FAC81BD814C916091BC64F4
:101AE000F401808191810E940E118981D5018C932E
:101AF0008A8111968C9311978B8112968C93F601A3
:101B000031971082EC81FD813196EC83FD83F2E008
:101B10008F0E911C24E0A20EB11C6C147D0469F69A
:101B200066EA70E084E195E60E943B010DE310E077
:101B300003C00150110941F084E690E00E941F03A8
:101B40008091BA648823A9F38EE896E6A0EFB4E604
:101B5000ECECF4E6AD012191222331F0DA011C9284
:101B6000FF24F394DC01FC924F5F5F4F01962E1629
:101B70003F0689F788E4EAEBF5E6A2E2B6E60190D3
:101B80000D928A95E1F784E2E0EFF4E6ACECB4E67E
:101B900001900D928A95E1F78CEC882E84E6982EC0
:101BA0009EE8A92E96E6B92E6E807F80288439841F
:101BB000D5018D915D018823F9F0FE0131967F01F9
:101BC0008E010E5F1F4F9E012D5F3F4FD4014C9140
:101BD0006091BC64F101808191810E940E11898124
:101BE000D3018C938A8111968C9311978B811296D5
:101BF0008C93F50131971082BFEF8B1A9B0AE2E0BC
:101C00002E0E311CF4E06F0E711CCA14DB0481F639
:101C100066EA70E084E195E60E943B01EFCCF901B1
:101C200080839093BF648A3009F06FCE0E94720661
:101C3000182B4ECE5F926F927F928F929F92AF92AF
:101C4000BF92CF92DF92EF92FF920F931F93CF93A9
:101C5000DF930E94C7116FEF75E00E9453118C0152
:101C60000E94C7116AE270E00E945311CC24C39411
:101C7000C80E0E94C71164E170E00E945311C82F82
:101C800096E0692E680E0E94C7116EE170E00E9416
:101C900053118C5E23E0822E912CA62CB12C95E260
:101CA000A90EB11C9AEF592E5C1AE82EF12CD12CFA
:101CB000D0E0C0E020C00E94460A811133C00E94DB
:101CC0005C080E94460A81112DC0C7010E941F03B3
:101CD0000E94460A811126C0AC16BD0699F10C0D72
:101CE0001D1D011596E0190710F00F5F1540219694
:101CF000C834D10539F17C2E83E28C1738F00E946C
:101D00006F05482FB8018C2F0E941F0A761498F295
:101D100040E0B801852D870D0E941F0A0E94460AE7
:101D2000882369F2DF91CF911F910F91FF90EF907F
:101D3000DF90CF90BF90AF909F908F907F906F90EB
:101D40005F90089581E0881A910861F3B1CF2F92D6
:101D50003F924F925F926F927F928F929F92AF923B
:101D6000BF92CF92DF92EF92FF920F931F93CF9388
:101D7000DF93CDB7DEB72F97CDBFDEBF0E94C7116F
:101D80006FEF75E00E9453114C010E94C7116CE384
:101D900070E00E9453118C5E8D830E94C71164E134
:101DA00070E00E945311865F8B830E94C71181707F
:101DB000907889839A8397FF06C001978E6F9F6FF3
:101DC000019689839A830E94C711817090785C0183
:101DD00097FF0AC021E0A21AB1083EEFA32ABB2454
:101DE000BA944FEFA41AB40A6FE0462EA114B104BE
:101DF00011F455E0452E9D81892F90E08D839E83BF
:101E0000FB81EF2FF0E0EA87FB874BE2642E77241B
:101E100073948FEF95E09C012E1B3F0B2C873D8721
:101E2000442D50E0488759878B829C824F823BE249
:101E3000432E552453944618570889819A81892B3B
:101E400009F4F2C0EA85FB852B813C812E173F0700
:101E500008F0FCC04C855D85240F351F2B833C8327
:101E600092E2292E93E6392E2DE6C22E23E6D22EBB
:101E70008B819C818E879F8710E000E0A114B104C4
:101E800009F4BCC0F101808029813A81232B09F437
:101E9000A8C00415150508F05FC088859985801BCA
:101EA000910B8615970508F057C0882009F454C097
:101EB000A114B10409F0A5C00E946F05482F6E85DA
:101EC0007F85F60181810E941F0AF1E0F81508F074
:101ED00043C00E946F05482F6E857F85F601828181
:101EE0000E941F0AF2E08F16B9F10E946F05482F79
:101EF0006E857F85F60183810E941F0AF3E08F16AD
:101F000059F10E946F05482F6E857F85F601848107
:101F10000E941F0AF4E08F16F9F00E946F05482F07
:101F20006E857F85F60185810E941F0AF5E08F1678
:101F300099F0760126E0E20EF11C85E0982E0E94D1
:101F40006F05482F6E857F85F70181917F010E9483
:101F50001F0A93949810F3CF2E853F854D815E81A3
:101F6000240F351F2E873F87211556E0350720F0B7
:101F70002F5F35402E873F870F5F1F4F85E0280E6C
:101F8000311C9BE0C90ED11CEF810E1708F476CFEF
:101F90000E94460A81110FC00E945C0888E290E00E
:101FA0000E941F030E94460A811105C0F1E06F1ACA
:101FB000710808F03CCF2F96CDBFDEBFDF91CF91E7
:101FC0001F910F91FF90EF90DF90CF90BF90AF9057
:101FD0009F908F907F906F905F904F903F902F9049
:101FE000089588859985801B910B8415950508F0C7
:101FF000B3CF0615170508F0AFCF57CFF601808095
:1020000043CF7101FFEFEF1AFF0A912C0E946F0579
:10201000482F6E857F85F70181917F010E941F0AFD
:1020200093948910F3CF98CF2B813C814A855B85AF
:10203000240F351F2B833C83211556E0350708F408
:102040000FCF2F5F35402B833C830ACFC9018E1BF6
:102050009F0B8B839C8304CFEF92FF920F931F9370
:10206000CF93DF930E94C7116FEF75E00E94531169
:102070008C010E94C71160E971E00E9453117C013C
:1020800028ECE20EF11CD8E0C0E00E946F05482F5A
:10209000B8018C2F0E941F0ACF5FC432B1F70E9493
:1020A000460A811115C082E00E9410090E94460A6A
:1020B00081110EC080ED97E00E941F030E0D1F1DC1
:1020C000011586E0180710F00F5F1540D150E1F6BA
:1020D000DF91CF911F910F91FF90EF9008955F9244
:1020E0006F927F928F929F92AF92BF92CF92DF9228
:1020F000EF92FF920F931F93CF93DF93CDB7DEB78D
:10210000A497CDBFDEBF0E94C7116FEF75E00E949C
:1021100053116C01FE01319680E081938F5F843210
:10212000E1F784E0682E712C81E090E08C0F9D1F18
:1021300084965C0198EC892E912CFE0131967F01EA
:1021400004E210E0512C0E94C711B8010E94531103
:10215000E52DE80FA1E0B0E0AC0FBD1FAE0FB11D43
:10216000FD018081D7019C919083F70181937F01CC
:10217000539401501109F4E25F12E5CF0E94C71198
:10218000B4010E9453118A569F4FC80ED91EC11424
:1021900086E0D80688F58E010F5F1F4F0DC00E94A4
:1021A0005C088EE190E00E941F030E94460A8111A4
:1021B00010C0A016B10629F10E946F05482FB60184
:1021C000D8018D918D010E941F0A0E94460A882322
:1021D00031F3A496CDBFDEBFDF91CF911F910F9158
:1021E000FF90EF90DF90CF90BF90AF909F908F9037
:1021F0007F906F905F9008959FEFC91A95E0D90A7C
:10220000CACF88E592E00E941F030E94460A81110E
:10221000E0CFB1E06B1A7108E1F28FCFCF93DF937B
:10222000D901E801F701611104C04C934883408350
:1022300037C0963008F095E091FF03C09D01DF01A3
:10224000F90192FF03C09E01EF01F90126E0292365
:1022500031F490FD06C09D01DE01E90102C090FD50
:10226000FACF488320E031E0762F7095749F030EFB
:10227000121E010C121E108290FD08C0C0E0D1E0B9
:10228000C81BD20BC69FD0FD160E01C0869F010C45
:10229000121E1094149E4695040E121E1C921124B8
:1022A000DF91CF91089597FB072E16F4009407D085
:1022B00077FD09D00E94671107FC05D03EF4909588
:1022C00081959F4F0895709561957F4F0895AA1B42
:1022D000BB1B51E107C0AA1FBB1FA617B70710F011
:1022E000A61BB70B881F991F5A95A9F78095909543
:1022F000BC01CD0108958F929F92AF92BF92CF9271
:10230000DF92EF92FF92CF93DF93EC0168817981A6
:102310008A819B81611571058105910521F464E233
:1023200079ED8BE597E02DE133EF41E050E00E943D
:10233000B81749015A019B01AC01A7EAB1E40E9418
:10234000D7176B017C01ACEEB4EFA50194010E949C
:10235000E517DC01CB018C0D9D1DAE1DBF1DB7FF28
:1023600003C00197A109B04888839983AA83BB83DE
:102370009F77DF91CF91FF90EF90DF90CF90BF904C
:10238000AF909F908F9008950E947B11089580E0F8
:1023900090E60E947B110895B0E0A0E08093006079
:1023A00090930160A0930260B09303600895DC01F4
:1023B00001C06D9341505040E0F70895B0E0A0E0B7
:1023C000E4EEF1E10C94FA17AE014B5F5F4FFA01B6
:1023D00061917191AF018091B4669091B5660E9450
:1023E0003F12E2E00C9413186091B4667091B566E8
:1023F0000E940F1708950F931F93CF93DF93E091DF
:10240000B466F091B5662381EC0110E000E021FD97
:1024100008C00FEF1FEF14C00995892B11F00FEFC3
:102420001FEF89916091B4667091B566DB011896D3
:10243000ED91FC918111F0CF8AE00995892B49F744
:10244000C801DF91CF911F910F910895AEE0B0E0E8
:10245000ECE2F2E10C94FA1785E08C838B899C897D
:1024600089839A83AE01495E5F4F6D897E89CE0173
:1024700001960E94A4152E96E2E00C941318ABE08E
:10248000B0E0E5E4F2E10C94EA177C013B018A013B
:10249000FC0116821782838181FFC8C1CE0101969B
:1024A0005C01F7019381F30193FD859193FF819185
:1024B0003F01882309F453C1853239F493FD859196
:1024C00093FF81913F01853229F4B70190E00E948A
:1024D0000F17E7CF912C212C312CFFE1F31538F0A9
:1024E0008B3211F190F4803209F1833229F137FCFB
:1024F0003CC020ED280F2A3050F536FE20C08AE07F
:10250000989E200D1124922E06C08D3291F08033BA
:1025100071F7689430F8F30193FD859193FF8191F1
:102520003F018111DACF21C0689431F8689432F804
:10253000F2CF689433F8EFCF689434F8ECCFEAE048
:102540002E9E200D1124222E689435F8E4CF8E3271
:1025500029F436FC04C1689436F8DDCF8C3619F4C2
:10256000689437F8D8CF8836B1F2982F9F7D95546C
:102570009330E0F08336A1F18337C1F1833509F060
:1025800063C02801F2E04F0E511CF801C080D180D9
:10259000692D70E036FC02C06FEF7FEFC6010E942C
:1025A000BD164C01689437F882010AC00C5F1F4FBA
:1025B000FFE3F98388248394912C6501E89437F82C
:1025C00033FE2DC0522C8114910471F5552009F46D
:1025D00068CFB70180E290E00E940F175A94F6CFBF
:1025E000F801808189830E5F1F4FE4CF2801F2E05C
:1025F0004F0E511CF801C080D180692D70E036FC6F
:1026000002C06FEF7FEFC6010E94C8164C01820125
:10261000D5CFB70180E290E00E940F172A942814CA
:10262000190409F0B0F7CECFF60137FC859137FEDB
:1026300081916F01B70190E00E940F1751105A94D9
:10264000F1E08F1A9108BFCF843619F0893609F06E
:1026500077C0F80137FE6BC0608171818281938100
:102660000C5F1F4FF32DFF763F2E97FF09C090950B
:102670008095709561957F4F8F4F9F4F689437F885
:102680002AE030E0A5010E945717C82ECA188C2CEA
:10269000432C36FE0CC0E89440F8C91440F434FED4
:1026A00005C032FC03C0F32DFE7E4F2E892C44FE64
:1026B00095C0FE01EC0DF11D8081803309F087C0CB
:1026C000242D297E422E842D8870582E43FC95C0DF
:1026D00040FE8FC09C2C821418F42C0C922C98185D
:1026E00044FE91C0B70180E390E00E940F1742FEC4
:1026F00009C088E790E041FE02C088E590E0B7019C
:102700000E940F17C91408F48AC0CA94D12C9FEFF5
:10271000C91AD90ACA0CDB1CF60182916F01B701F4
:1027200090E00E940F17AC14BD04B1F74FCF608149
:102730007181072E000C880B990B0E5F1F4F92CFF3
:10274000D32CE894D4F82AE030E0853739F1232DF2
:10275000297FD22E8F3601F148F48835A9F0F70190
:10276000868197812B96E2E10C940318803749F01B
:102770008837A9F7D4FE02C06894D2F820E130E08F
:102780000DC06894D4F8F6CF34FE03C0822F866063
:10279000D82E20E132E002C028E030E0F801D7FE78
:1027A0000FC060817181828193810C5F1F4FA501F1
:1027B0000E945717C82ECA183D2CE89437F867CFE7
:1027C0006081718190E080E00E5F1F4FF0CF42FC8E
:1027D00002C0839478CF8394839475CF842D8678B8
:1027E00009F471CFF6CFB70180E290E00E940F1795
:1027F00083948214C0F3512C73CF522C5818821436
:1028000008F46ECFF8CF842D867809F47BCF8BE265
:1028100041FE80E247FC8DE2B70190E071CFB70145
:1028200080E390E00E940F179A946CCF8FEF9FEF98
:1028300099CF20FD09C0FC0123FD05C022FF02C085
:102840007383628351834083089544FD17C046FD1E
:102850001DC0DB01FC01AA0FBB1FEE1FFF1F109460
:10286000D1F76A0F7B1F8E1F9F1F660F771F881F70
:10287000991F620F711D811D911D089533E0660F30
:10288000771F881F991F3150D1F7F3CF34E0F7CF6E
:102890000F931F93CF93DF938C01C8010E94D3162F
:1028A000EC0197FD08C00E94A916892BB1F7B80169
:1028B000CE010E943F17CE01DF91CF911F910F9162
:1028C00008958F929F92AF92BF92EF92FF920F93D3
:1028D0001F93CF93DF938C01D62F7A01B22E0E94E3
:1028E000D3169C0133272B32310529F02D323105C7
:1028F000A9F46894B7F8D15061F480E0DF91CF91EA
:102900001F910F91FF90EF90BF90AF909F908F908D
:102910000895C8010E94D31697FDEFCFCB2DCD7F30
:102920002B2D2073F9F48033E9F4AA24AA94AD0E78
:1029300089F0C8010E94D31697FD0CC0282F2F7D67
:10294000283561F4C264D25029F0C8010E94D31620
:1029500097FF08C0812C912C54011BC0B6FE2BC0E0
:10296000C260DA2D812C912C540120ED280F2830E3
:1029700028F1C4FD09C02A3008F1C6FF05C02F7D2B
:102980003FEE320F3630C8F0B8010E943F17C1FF4A
:10299000B4CFC7FF08C0B094A09490948094811CD9
:1029A000911CA11CB11C2C2FB501A401C7010E94D0
:1029B000191481E0A3CFC261D4CF27504C2FC50199
:1029C000B4010E9425144B015C01C260D15009F38F
:1029D000C8010E94D31697FFC8CFD9CFA0E2B0E0BC
:1029E000E4EFF4E10C94EF175C01962E7A01CE012E
:1029F00001966C0180E2F60111928A95E9F7F501E2
:102A0000B381890130E020E0712C812CA0E041E00D
:102A100050E0F801B3FD8591B3FF8191982F8F01AC
:102A2000811107C010E000E0C801A096EDE00C9411
:102A300008188E3519F42115310541F1A217130636
:102A40004CF48D3549F18D3229F4811006C088246B
:102A500083941DC0882009F464C0E92FE695E695AB
:102A6000E695EC0DFD2DF11D892F8770BA0101C08F
:102A7000660F8A95EAF78081682B6083791651F09A
:102A8000971510F49F5FE9CF9150E7CFA1E02F5F3A
:102A90003F4FBFCF812CFBCF882019F08E81806201
:102AA0008E83AA2359F0F6019E012F5D3F4F80814E
:102AB000809580833196E217F307C9F788248394C1
:102AC000C5010E94D31697FD16C0E82FE695E6953E
:102AD000E695EC0DFD2DF11D208130E0AC01477035
:102AE000552702C0359527954A95E2F720FD06C087
:102AF000B5010E943F17882069F094CFE114F104DA
:102B000029F0F7018083C70101967C019A94812CFA
:102B10009110D6CFE114F10409F486CFF7011082A9
:102B200083CFE82FE695E695E695EC0DFD2DF11D9A
:102B3000982F9770BA0101C0660F9A95EAF79081B5
:102B4000692B6083782EA3CFB0E0A0E0EAEAF5E13C
:102B50000C94ED176C01EB015A01FC0116821782EF
:102B6000512CF601E380FE01E3FC8591E3FE8191A7
:102B7000182FEF018823E9F090E00E94A916892B15
:102B800021F0C6010E944814ECCF153241F4FE0139
:102B9000E3FC1591E3FE1191EF01153269F4C601D2
:102BA0000E94D31697FD8EC01817D9F2B6010E9465
:102BB0003F17852D90E08AC000E01A3231F4E3FC23
:102BC0001591E3FE1191EF0101E0F12C20ED210FB1
:102BD0002A3048F101FF37C0FF2059F31836B1F110
:102BE0001C3609F43DC0112321F3612F70E080E908
:102BF00090E00E94B216892BE1F2912C812C00FD0D
:102C000006C0F50180809180C50102965C011E36E8
:102C100079F5F6014681578170E060E0202FC4010C
:102C20000E9419149ECF02606F2D70E090E080E04A
:102C300040E20E942514F62EFE01E3FC1591E3FE0E
:102C40001191EF01C3CFFF24FA94C8CFFE01E3FC3A
:102C50001591E3FE1191EF01183609F0C4CF086019
:102C60000460FE01E3FC1591E3FE1191EF01BBCF7F
:102C70001336C1F401FD02C0FF24F394C6010E9483
:102C8000D31697FD1FC08114910429F0F4018083AD
:102C9000C40101964C01FA94F110F0CF00FD61CF10
:102CA00053945FCF1B35B9F49E01A4016F2DC6016B
:102CB0000E94EE14EC01892B89F7F6018381807361
:102CC00009F477CF8FEF9FEF511073CFCDB7DEB7F9
:102CD000EFE00C940618C6010E94481497FDF2CF4D
:102CE0001F36A9F130F4143641F0193639F000647A
:102CF00005C01337B9F01537D1F70062202FA401B2
:102D00006F2DC6010E9461148111C8CFD6CF8114E6
:102D1000910429F0F4016082C40101964C01FA94F7
:102D2000FF2071F0C6010E94D3163C0197FD08C038
:102D30000E94A916892B59F3B601C3010E943F17BF
:102D40008114910409F4AACFF4011082A7CF006185
:102D5000D5CF91110C94B517803219F08950855058
:102D6000C8F70895FC010590061621F00020D9F758
:102D7000C00108953197CF010895FC01059061507D
:102D800070400110D8F7809590958E0F9F1F089581
:102D9000FC016150704001900110D8F7809590952A
:102DA0008E0F9F1F0895CF93DF93EC012B8120FF9F
:102DB0001AC026FF0CC02F7B2B838E819F8101962A
:102DC0008E839F838A8190E0DF91CF91089522FFC7
:102DD00018C0E881F9818081082E000C990B0097BA
:102DE00029F420622B838FEF9FEFEECF3196E8839B
:102DF000F9832E813F812F5F3F4F2E833F83992799
:102E0000E3CFEA85FB85099597FFF3CF2B810196E8
:102E100021F080E2822B8B83E6CF80E1FBCF0F9302
:102E20001F93CF93DF93182F092FEB018B8181FD27
:102E300009C01FEF0FEF812F902FDF91CF911F91CE
:102E40000F91089582FF14C02E813F818C819D8156
:102E5000281739073CF4E881F981CF01019688836E
:102E6000998310838E819F8101968E839F83E3CF08
:102E7000E885F985812F0995892BA1F3DACFFB012C
:102E8000238120FF11C026FD0FC08F3F980771F0EE
:102E900082832F7D2064238326813781215031094D
:102EA00026833783992708958FEF9FEF0895FA01BE
:102EB000AA27283051F1203181F1E8946F936E7F79
:102EC0006E5F7F4F8F4F9F4FAF4FB1E03ED0B4E06A
:102ED0003CD0670F781F891F9A1FA11D680F791FAB
:102EE0008A1F911DA11D6A0F711D811D911DA11DBC
:102EF00020D009F468943F912AE0269F11243019CC
:102F0000305D3193DEF6CF010895462F4770405D66
:102F10004193B3E00FD0C9F7F6CF462F4F70405D15
:102F20004A3318F0495D31FD4052419302D0A9F770
:102F3000EACFB4E0A6959795879577956795BA956A
:102F4000C9F700976105710508959B01AC010A2E30
:102F500006945795479537952795BA95C9F7620F07
:102F6000731F841F951FA01D089599278827089512
:102F7000052E97FB1EF400940E94CF1757FD07D033
:102F80000E941B1807FC03D04EF40C94CF175095E9
:102F90004095309521953F4F4F4F5F4F0895909545
:102FA0008095709561957F4F8F4F9F4F08950E9438
:102FB0003D18A59F900DB49F900DA49F800D911D6D
:102FC00011240895B7FF0C94D7170E94D717821BBE
:102FD000930B08952F923F924F925F926F927F9240
:102FE0008F929F92AF92BF92CF92DF92EF92FF9219
:102FF0000F931F93CF93DF93CDB7DEB7CA1BDB0BC5
:10300000CDBFDEBF09942A88398848885F846E84E2
:103010007D848C849B84AA84B984C884DF80EE80FC
:10302000FD800C811B81AA81B981CE0FD11DCDBF3E
:10303000DEBFED010895A1E21A2EAA1BBB1BFD0104
:103040000DC0AA1FBB1FEE1FFF1FA217B307E40787
:10305000F50720F0A21BB30BE40BF50B661F771FDF
:10306000881F991F1A9469F76095709580959095BF
:103070009B01AC01BD01CF010895A29FB001B39F98
:10308000C001A39F700D811D1124911DB29F700D71
:0C309000811D1124911D0895F894FFCFBC
:10309C000100000000000002000000002F040000EE
:1030AC00000031C535C4496E666F3A204E657720F5
:1030BC00736565642025750A00496E666F3A205366
:1030CC006176696E6720636F6E666967757261748D
:1030DC00696F6E00496E666F3A2053657474696E41
:1030EC006720636F6E66696775726174696F6E20B5
:1030FC00746F2064656661756C7400496E666F3A16
:10310C00204C6F6164696E6720636F6E66696775CA
:10311C00726174696F6E002D2D20416374696F6E3E
:10312C0073202D2D2D2D2D2D2D2D2D2D2D2D2D2D8A
:10313C002D2D2D2D2D2D2D2D2D2D2D2D2D2D2D2DB3
:10314C002D2D2D2D2D2D2D2D2D2D2D2D2D2D2D2DA3
:10315C002D2D2D2D2D2D2D2D2D2D2D0020272A27DC
:10316C00203D20526573657420746F206465666120
:10317C00756C7420636F6E66696775726174696FC4
:10318C006E0020272D27203D205265626F6F740042
:10319C0020273F27203D2053686F77207468697380
:1031AC002068656C70002D2D20436F6E6669677505
:1031BC00726174696F6E202D2D2D2D2D2D2D2D2DC1
:1031CC002D2D2D2D2D2D2D2D2D2D2D2D2D2D2D2D23
:1031DC002D2D2D2D2D2D2D2D2D2D2D2D2D2D2D2D13
:1031EC002D2D2D2D2D2D2D2D2D2D0050203C302D08
:1031FC00333630303E203D2050617573652062655A
:10320C00747765656E20616E696D6174696F6E733C
:10321C000053203C312D3235353E20203D204C458D
:10322C00442073617475726174696F6E0049203C3F
:10323C00312D3235353E20203D204C454420696EE1
:10324C0074656E73697479002D2D204375727265E7
:10325C006E7420636F6E66696775726174696F6EE8
:10326C00202D2D20273F2720666F722068656C70FB
:10327C00202D2D2D2D2D2D2D2D2D2D2D2D2D2D2D7F
:10328C002D2D2D2D2D2D2D2D2D2D2D2D00506175F0
:10329C00736520202020203A202564207365630A62
:1032AC000053617475726174696F6E3A2025640AFB
:1032BC0000496E74656E73697479203A2025640A2E
:1032CC0000526573657474696E6720696E203220D4
:1032DC007365636F6E64732E2E2E00256325750047
:1032EC00556E6B6E6F776E20636F6D6D616E6420C3
:1032FC006F7220706172616D657465722028273F52
:10330C002720666F722068656C70293A202573003F
:10331C00496E666F3A205374617274696E672061EE
:10332C006E696D6174696F6E202325640A00496EA5
:10333C00666F3A20556E6B6E6F776E20616E696D9D
:10334C006174696F6E2C20736B697070696E672184
:10335C000057656C636F6D65204D73204943502198
:10336C000068747470733A2F2F6769746875622ED5
:10337C00636F6D2F6B69752F4D734943502000524D
:10338C0045562025632000564552202530327820A2
:10339C0000496E666F3A2050617573696E672066DE
:1033AC006F72202564207365636F6E64732E2E2EEE
:1033BC000A000400010203020405000001060000DB
:1033CC0000020708000004090A0B0C020D10000093
:1033DC00010F00000002110E00000412131415025C
:1033EC001819000002171A000002161B0000041C1A
:1033FC001D1E1F02202300000221220000090006CE
:10340C000C0D0E121A1B1C00090105070B0F1319CA
:10341C001D23000A0204080A101114181E220803A6
:0A342C00091517161F2021000000EB
:02000004008278
:090000000000000000D010000017
:00000001FF
